{
  "_format": "hh-sol-artifact-1",
  "contractName": "Election",
  "sourceName": "contracts/Election.sol",
  "abi": [
    {
      "inputs": [
        {
          "internalType": "string",
          "name": "_candidate",
          "type": "string"
        }
      ],
      "name": "addCandidate",
      "outputs": [],
      "stateMutability": "nonpayable",
      "type": "function"
    },
    {
      "inputs": [
        {
          "internalType": "uint256",
          "name": "",
          "type": "uint256"
        }
      ],
      "name": "candidates",
      "outputs": [
        {
          "internalType": "uint256",
          "name": "id",
          "type": "uint256"
        },
        {
          "internalType": "string",
          "name": "name",
          "type": "string"
        }
      ],
      "stateMutability": "view",
      "type": "function"
    },
    {
      "inputs": [
        {
          "internalType": "uint256",
          "name": "_candId",
          "type": "uint256"
        }
      ],
      "name": "checkWinner",
      "outputs": [
        {
          "internalType": "bool",
          "name": "",
          "type": "bool"
        }
      ],
      "stateMutability": "view",
      "type": "function"
    },
    {
      "inputs": [],
      "name": "currId",
      "outputs": [
        {
          "internalType": "uint256",
          "name": "",
          "type": "uint256"
        }
      ],
      "stateMutability": "view",
      "type": "function"
    },
    {
      "inputs": [],
      "name": "currentLeader",
      "outputs": [
        {
          "internalType": "string",
          "name": "",
          "type": "string"
        }
      ],
      "stateMutability": "view",
      "type": "function"
    },
    {
      "inputs": [],
      "name": "getCandidates",
      "outputs": [
        {
          "components": [
            {
              "internalType": "uint256",
              "name": "id",
              "type": "uint256"
            },
            {
              "internalType": "string",
              "name": "name",
              "type": "string"
            }
          ],
          "internalType": "struct Election.Candidate[]",
          "name": "",
          "type": "tuple[]"
        }
      ],
      "stateMutability": "view",
      "type": "function"
    },
    {
      "inputs": [
        {
          "internalType": "uint256",
          "name": "_candId",
          "type": "uint256"
        }
      ],
      "name": "getVotes",
      "outputs": [
        {
          "internalType": "uint256",
          "name": "",
          "type": "uint256"
        }
      ],
      "stateMutability": "view",
      "type": "function"
    },
    {
      "inputs": [
        {
          "internalType": "uint256",
          "name": "",
          "type": "uint256"
        }
      ],
      "name": "votes",
      "outputs": [
        {
          "internalType": "uint256",
          "name": "",
          "type": "uint256"
        }
      ],
      "stateMutability": "view",
      "type": "function"
    }
  ],
  "bytecode": "0x6080604052600060025534801561001557600080fd5b50610c32806100256000396000f3fe608060405234801561001057600080fd5b50600436106100885760003560e01c8063462e91ec1161005b578063462e91ec1461012a5780635df8133014610146578063ac4bd53a14610176578063ff9810991461019457610088565b806306a49fce1461008d57806315efc9c8146100ab57806318854939146100c95780633477ee2e146100f9575b600080fd5b6100956101c4565b6040516100a291906108a9565b60405180910390f35b6100b36102bf565b6040516100c09190610908565b60405180910390f35b6100e360048036038101906100de919061071b565b6102c5565b6040516100f091906108cb565b60405180910390f35b610113600480360381019061010e919061071b565b6102e5565b604051610121929190610923565b60405180910390f35b610144600480360381019061013f91906106da565b6103a1565b005b610160600480360381019061015b919061071b565b610442565b60405161016d9190610908565b60405180910390f35b61017e61045a565b60405161018b91906108e6565b60405180910390f35b6101ae60048036038101906101a9919061071b565b610580565b6040516101bb9190610908565b60405180910390f35b60606000805480602002602001604051908101604052809291908181526020016000905b828210156102b657838290600052602060002090600202016040518060400160405290816000820154815260200160018201805461022590610a9b565b80601f016020809104026020016040519081016040528092919081815260200182805461025190610a9b565b801561029e5780601f106102735761010080835404028352916020019161029e565b820191906000526020600020905b81548152906001019060200180831161028157829003601f168201915b505050505081525050815260200190600101906101e8565b50505050905090565b60025481565b6000600a6001600084815260200190815260200160002054149050919050565b600081815481106102f557600080fd5b906000526020600020906002020160009150905080600001549080600101805461031e90610a9b565b80601f016020809104026020016040519081016040528092919081815260200182805461034a90610a9b565b80156103975780601f1061036c57610100808354040283529160200191610397565b820191906000526020600020905b81548152906001019060200180831161037a57829003601f168201915b5050505050905082565b600260008154809291906103b490610afe565b91905055506000604051806040016040528060025481526020018381525090806001815401808255809150506001900390600052602060002090600202016000909190919091506000820151816000015560208201518160010190805190602001906104219291906105ba565b50505060006001600060025481526020019081526020016000208190555050565b60016020528060005260406000206000915090505481565b60606000806000600190505b6000805490508111610498578261047c82610580565b10610485578091505b808061049090610afe565b915050610466565b5060006001826104a89190610a0f565b815481106104df577f4e487b7100000000000000000000000000000000000000000000000000000000600052603260045260246000fd5b906000526020600020906002020160010180546104fb90610a9b565b80601f016020809104026020016040519081016040528092919081815260200182805461052790610a9b565b80156105745780601f1061054957610100808354040283529160200191610574565b820191906000526020600020905b81548152906001019060200180831161055757829003601f168201915b50505050509250505090565b6000808211801561059657506000805490508211155b61059f57600080fd5b60016000838152602001908152602001600020549050919050565b8280546105c690610a9b565b90600052602060002090601f0160209004810192826105e8576000855561062f565b82601f1061060157805160ff191683800117855561062f565b8280016001018555821561062f579182015b8281111561062e578251825591602001919060010190610613565b5b50905061063c9190610640565b5090565b5b80821115610659576000816000905550600101610641565b5090565b600061067061066b84610978565b610953565b90508281526020810184848401111561068857600080fd5b610693848285610a59565b509392505050565b600082601f8301126106ac57600080fd5b81356106bc84826020860161065d565b91505092915050565b6000813590506106d481610be5565b92915050565b6000602082840312156106ec57600080fd5b600082013567ffffffffffffffff81111561070657600080fd5b6107128482850161069b565b91505092915050565b60006020828403121561072d57600080fd5b600061073b848285016106c5565b91505092915050565b6000610750838361084e565b905092915050565b6000610763826109b9565b61076d81856109dc565b93508360208202850161077f856109a9565b8060005b858110156107bb578484038952815161079c8582610744565b94506107a7836109cf565b925060208a01995050600181019050610783565b50829750879550505050505092915050565b6107d681610a43565b82525050565b60006107e7826109c4565b6107f181856109ed565b9350610801818560208601610a68565b61080a81610bd4565b840191505092915050565b6000610820826109c4565b61082a81856109fe565b935061083a818560208601610a68565b61084381610bd4565b840191505092915050565b6000604083016000830151610866600086018261088b565b506020830151848203602086015261087e82826107dc565b9150508091505092915050565b61089481610a4f565b82525050565b6108a381610a4f565b82525050565b600060208201905081810360008301526108c38184610758565b905092915050565b60006020820190506108e060008301846107cd565b92915050565b600060208201905081810360008301526109008184610815565b905092915050565b600060208201905061091d600083018461089a565b92915050565b6000604082019050610938600083018561089a565b818103602083015261094a8184610815565b90509392505050565b600061095d61096e565b90506109698282610acd565b919050565b6000604051905090565b600067ffffffffffffffff82111561099357610992610ba5565b5b61099c82610bd4565b9050602081019050919050565b6000819050602082019050919050565b600081519050919050565b600081519050919050565b6000602082019050919050565b600082825260208201905092915050565b600082825260208201905092915050565b600082825260208201905092915050565b6000610a1a82610a4f565b9150610a2583610a4f565b925082821015610a3857610a37610b47565b5b828203905092915050565b60008115159050919050565b6000819050919050565b82818337600083830152505050565b60005b83811015610a86578082015181840152602081019050610a6b565b83811115610a95576000848401525b50505050565b60006002820490506001821680610ab357607f821691505b60208210811415610ac757610ac6610b76565b5b50919050565b610ad682610bd4565b810181811067ffffffffffffffff82111715610af557610af4610ba5565b5b80604052505050565b6000610b0982610a4f565b91507fffffffffffffffffffffffffffffffffffffffffffffffffffffffffffffffff821415610b3c57610b3b610b47565b5b600182019050919050565b7f4e487b7100000000000000000000000000000000000000000000000000000000600052601160045260246000fd5b7f4e487b7100000000000000000000000000000000000000000000000000000000600052602260045260246000fd5b7f4e487b7100000000000000000000000000000000000000000000000000000000600052604160045260246000fd5b6000601f19601f8301169050919050565b610bee81610a4f565b8114610bf957600080fd5b5056fea264697066735822122013ef7c2a78bdbc3a410c9ee88b6822fc6c21dcdce80ddc4bc671cbd26f54d48764736f6c63430008040033",
  "linkReferences": {},
  "deployedLinkReferences": {}
}