{
  "_format": "hh-sol-artifact-1",
  "contractName": "Voters",
  "sourceName": "contracts/Voters.sol",
  "abi": [
    {
      "inputs": [
        {
          "internalType": "string",
          "name": "_candidate",
          "type": "string"
        }
      ],
      "name": "addCandidate",
      "outputs": [],
      "stateMutability": "nonpayable",
      "type": "function"
    },
    {
      "inputs": [
        {
          "internalType": "uint256",
          "name": "",
          "type": "uint256"
        }
      ],
      "name": "candidates",
      "outputs": [
        {
          "internalType": "uint256",
          "name": "id",
          "type": "uint256"
        },
        {
          "internalType": "string",
          "name": "name",
          "type": "string"
        }
      ],
      "stateMutability": "view",
      "type": "function"
    },
    {
      "inputs": [
        {
          "internalType": "uint256",
          "name": "_candId",
          "type": "uint256"
        }
      ],
      "name": "castVote",
      "outputs": [],
      "stateMutability": "nonpayable",
      "type": "function"
    },
    {
      "inputs": [
        {
          "internalType": "uint256",
          "name": "_candId",
          "type": "uint256"
        }
      ],
      "name": "changeVote",
      "outputs": [],
      "stateMutability": "nonpayable",
      "type": "function"
    },
    {
      "inputs": [
        {
          "internalType": "uint256",
          "name": "_candId",
          "type": "uint256"
        }
      ],
      "name": "checkWinner",
      "outputs": [
        {
          "internalType": "bool",
          "name": "",
          "type": "bool"
        }
      ],
      "stateMutability": "view",
      "type": "function"
    },
    {
      "inputs": [],
      "name": "createVoter",
      "outputs": [],
      "stateMutability": "nonpayable",
      "type": "function"
    },
    {
      "inputs": [],
      "name": "currId",
      "outputs": [
        {
          "internalType": "uint256",
          "name": "",
          "type": "uint256"
        }
      ],
      "stateMutability": "view",
      "type": "function"
    },
    {
      "inputs": [],
      "name": "currentLeader",
      "outputs": [
        {
          "internalType": "string",
          "name": "",
          "type": "string"
        }
      ],
      "stateMutability": "view",
      "type": "function"
    },
    {
      "inputs": [],
      "name": "getCandidates",
      "outputs": [
        {
          "components": [
            {
              "internalType": "uint256",
              "name": "id",
              "type": "uint256"
            },
            {
              "internalType": "string",
              "name": "name",
              "type": "string"
            }
          ],
          "internalType": "struct Election.Candidate[]",
          "name": "",
          "type": "tuple[]"
        }
      ],
      "stateMutability": "view",
      "type": "function"
    },
    {
      "inputs": [
        {
          "internalType": "uint256",
          "name": "_candId",
          "type": "uint256"
        }
      ],
      "name": "getVotes",
      "outputs": [
        {
          "internalType": "uint256",
          "name": "",
          "type": "uint256"
        }
      ],
      "stateMutability": "view",
      "type": "function"
    },
    {
      "inputs": [],
      "name": "latestVoterId",
      "outputs": [
        {
          "internalType": "uint256",
          "name": "",
          "type": "uint256"
        }
      ],
      "stateMutability": "view",
      "type": "function"
    },
    {
      "inputs": [],
      "name": "retractVote",
      "outputs": [],
      "stateMutability": "nonpayable",
      "type": "function"
    },
    {
      "inputs": [
        {
          "internalType": "address",
          "name": "",
          "type": "address"
        }
      ],
      "name": "voters",
      "outputs": [
        {
          "internalType": "uint256",
          "name": "voterId",
          "type": "uint256"
        },
        {
          "internalType": "bool",
          "name": "voted",
          "type": "bool"
        },
        {
          "internalType": "uint256",
          "name": "selection",
          "type": "uint256"
        }
      ],
      "stateMutability": "view",
      "type": "function"
    },
    {
      "inputs": [
        {
          "internalType": "uint256",
          "name": "",
          "type": "uint256"
        }
      ],
      "name": "votes",
      "outputs": [
        {
          "internalType": "uint256",
          "name": "",
          "type": "uint256"
        }
      ],
      "stateMutability": "view",
      "type": "function"
    }
  ],
  "bytecode": "0x60806040526000600255600060045534801561001a57600080fd5b506112258061002a6000396000f3fe608060405234801561001057600080fd5b50600436106100ea5760003560e01c8063462e91ec1161008c578063a3ec138d11610066578063a3ec138d14610226578063ac4bd53a14610258578063c9f51e5a14610276578063ff98109914610292576100ea565b8063462e91ec146101d05780635df81330146101ec57806360fccde81461021c576100ea565b8063165a490f116100c8578063165a490f1461013557806318854939146101535780633477ee2e146101835780633eb76b9c146101b4576100ea565b806306a49fce146100ef578063070c8b741461010d57806315efc9c814610117575b600080fd5b6100f76102c2565b6040516101049190610df2565b60405180910390f35b6101156103bd565b005b61011f61052d565b60405161012c9190610e51565b60405180910390f35b61013d610533565b60405161014a9190610e51565b60405180910390f35b61016d60048036038101906101689190610c64565b610539565b60405161017a9190610e14565b60405180910390f35b61019d60048036038101906101989190610c64565b610559565b6040516101ab929190610ea3565b60405180910390f35b6101ce60048036038101906101c99190610c64565b610615565b005b6101ea60048036038101906101e59190610c23565b610761565b005b61020660048036038101906102019190610c64565b610802565b6040516102139190610e51565b60405180910390f35b61022461081a565b005b610240600480360381019061023b9190610bfa565b61091a565b60405161024f93929190610e6c565b60405180910390f35b610260610951565b60405161026d9190610e2f565b60405180910390f35b610290600480360381019061028b9190610c64565b610a77565b005b6102ac60048036038101906102a79190610c64565b610a8b565b6040516102b99190610e51565b60405180910390f35b60606000805480602002602001604051908101604052809291908181526020016000905b828210156103b457838290600052602060002090600202016040518060400160405290816000820154815260200160018201805461032390611077565b80601f016020809104026020016040519081016040528092919081815260200182805461034f90611077565b801561039c5780601f106103715761010080835404028352916020019161039c565b820191906000526020600020905b81548152906001019060200180831161037f57829003601f168201915b505050505081525050815260200190600101906102e6565b50505050905090565b60011515600360003373ffffffffffffffffffffffffffffffffffffffff1673ffffffffffffffffffffffffffffffffffffffff16815260200190815260200160002060010160009054906101000a900460ff1615151461041d57600080fd5b60016000600360003373ffffffffffffffffffffffffffffffffffffffff1673ffffffffffffffffffffffffffffffffffffffff16815260200190815260200160002060020154815260200190815260200160002060008154809291906104839061104d565b91905055506000600360003373ffffffffffffffffffffffffffffffffffffffff1673ffffffffffffffffffffffffffffffffffffffff16815260200190815260200160002060010160006101000a81548160ff0219169083151502179055506000600360003373ffffffffffffffffffffffffffffffffffffffff1673ffffffffffffffffffffffffffffffffffffffff16815260200190815260200160002060020181905550565b60025481565b60045481565b6000600a6001600084815260200190815260200160002054149050919050565b6000818154811061056957600080fd5b906000526020600020906002020160009150905080600001549080600101805461059290611077565b80601f01602080910402602001604051908101604052809291908181526020018280546105be90611077565b801561060b5780601f106105e05761010080835404028352916020019161060b565b820191906000526020600020905b8154815290600101906020018083116105ee57829003601f168201915b5050505050905082565b60008111801561062a57506000805490508111155b61063357600080fd5b60001515600360003373ffffffffffffffffffffffffffffffffffffffff1673ffffffffffffffffffffffffffffffffffffffff16815260200190815260200160002060010160009054906101000a900460ff1615151461069357600080fd5b80600360003373ffffffffffffffffffffffffffffffffffffffff1673ffffffffffffffffffffffffffffffffffffffff168152602001908152602001600020600201819055506001600360003373ffffffffffffffffffffffffffffffffffffffff1673ffffffffffffffffffffffffffffffffffffffff16815260200190815260200160002060010160006101000a81548160ff021916908315150217905550600160008281526020019081526020016000206000815480929190610759906110da565b919050555050565b60026000815480929190610774906110da565b91905055506000604051806040016040528060025481526020018381525090806001815401808255809150506001900390600052602060002090600202016000909190919091506000820151816000015560208201518160010190805190602001906107e1929190610ac5565b50505060006001600060025481526020019081526020016000208190555050565b60016020528060005260406000206000915090505481565b6000600360003373ffffffffffffffffffffffffffffffffffffffff1673ffffffffffffffffffffffffffffffffffffffff168152602001908152602001600020600001541461086957600080fd5b6004600081548092919061087c906110da565b9190505550604051806060016040528060045481526020016000151581526020016000815250600360003373ffffffffffffffffffffffffffffffffffffffff1673ffffffffffffffffffffffffffffffffffffffff1681526020019081526020016000206000820151816000015560208201518160010160006101000a81548160ff02191690831515021790555060408201518160020155905050565b60036020528060005260406000206000915090508060000154908060010160009054906101000a900460ff16908060020154905083565b60606000806000600190505b600080549050811161098f578261097382610a8b565b1061097c578091505b8080610987906110da565b91505061095d565b50600060018261099f9190610f8f565b815481106109d6577f4e487b7100000000000000000000000000000000000000000000000000000000600052603260045260246000fd5b906000526020600020906002020160010180546109f290611077565b80601f0160208091040260200160405190810160405280929190818152602001828054610a1e90611077565b8015610a6b5780601f10610a4057610100808354040283529160200191610a6b565b820191906000526020600020905b815481529060010190602001808311610a4e57829003601f168201915b50505050509250505090565b610a7f6103bd565b610a8881610615565b50565b60008082118015610aa157506000805490508211155b610aaa57600080fd5b60016000838152602001908152602001600020549050919050565b828054610ad190611077565b90600052602060002090601f016020900481019282610af35760008555610b3a565b82601f10610b0c57805160ff1916838001178555610b3a565b82800160010185558215610b3a579182015b82811115610b39578251825591602001919060010190610b1e565b5b509050610b479190610b4b565b5090565b5b80821115610b64576000816000905550600101610b4c565b5090565b6000610b7b610b7684610ef8565b610ed3565b905082815260208101848484011115610b9357600080fd5b610b9e84828561100b565b509392505050565b600081359050610bb5816111c1565b92915050565b600082601f830112610bcc57600080fd5b8135610bdc848260208601610b68565b91505092915050565b600081359050610bf4816111d8565b92915050565b600060208284031215610c0c57600080fd5b6000610c1a84828501610ba6565b91505092915050565b600060208284031215610c3557600080fd5b600082013567ffffffffffffffff811115610c4f57600080fd5b610c5b84828501610bbb565b91505092915050565b600060208284031215610c7657600080fd5b6000610c8484828501610be5565b91505092915050565b6000610c998383610d97565b905092915050565b6000610cac82610f39565b610cb68185610f5c565b935083602082028501610cc885610f29565b8060005b85811015610d045784840389528151610ce58582610c8d565b9450610cf083610f4f565b925060208a01995050600181019050610ccc565b50829750879550505050505092915050565b610d1f81610fd5565b82525050565b6000610d3082610f44565b610d3a8185610f6d565b9350610d4a81856020860161101a565b610d53816111b0565b840191505092915050565b6000610d6982610f44565b610d738185610f7e565b9350610d8381856020860161101a565b610d8c816111b0565b840191505092915050565b6000604083016000830151610daf6000860182610dd4565b5060208301518482036020860152610dc78282610d25565b9150508091505092915050565b610ddd81611001565b82525050565b610dec81611001565b82525050565b60006020820190508181036000830152610e0c8184610ca1565b905092915050565b6000602082019050610e296000830184610d16565b92915050565b60006020820190508181036000830152610e498184610d5e565b905092915050565b6000602082019050610e666000830184610de3565b92915050565b6000606082019050610e816000830186610de3565b610e8e6020830185610d16565b610e9b6040830184610de3565b949350505050565b6000604082019050610eb86000830185610de3565b8181036020830152610eca8184610d5e565b90509392505050565b6000610edd610eee565b9050610ee982826110a9565b919050565b6000604051905090565b600067ffffffffffffffff821115610f1357610f12611181565b5b610f1c826111b0565b9050602081019050919050565b6000819050602082019050919050565b600081519050919050565b600081519050919050565b6000602082019050919050565b600082825260208201905092915050565b600082825260208201905092915050565b600082825260208201905092915050565b6000610f9a82611001565b9150610fa583611001565b925082821015610fb857610fb7611123565b5b828203905092915050565b6000610fce82610fe1565b9050919050565b60008115159050919050565b600073ffffffffffffffffffffffffffffffffffffffff82169050919050565b6000819050919050565b82818337600083830152505050565b60005b8381101561103857808201518184015260208101905061101d565b83811115611047576000848401525b50505050565b600061105882611001565b9150600082141561106c5761106b611123565b5b600182039050919050565b6000600282049050600182168061108f57607f821691505b602082108114156110a3576110a2611152565b5b50919050565b6110b2826111b0565b810181811067ffffffffffffffff821117156110d1576110d0611181565b5b80604052505050565b60006110e582611001565b91507fffffffffffffffffffffffffffffffffffffffffffffffffffffffffffffffff82141561111857611117611123565b5b600182019050919050565b7f4e487b7100000000000000000000000000000000000000000000000000000000600052601160045260246000fd5b7f4e487b7100000000000000000000000000000000000000000000000000000000600052602260045260246000fd5b7f4e487b7100000000000000000000000000000000000000000000000000000000600052604160045260246000fd5b6000601f19601f8301169050919050565b6111ca81610fc3565b81146111d557600080fd5b50565b6111e181611001565b81146111ec57600080fd5b5056fea2646970667358221220952ba0c26c11fe3bdce6351b1b7c04100185bbaa1c1c124e1122aa676bba03c664736f6c63430008040033",
  "linkReferences": {},
  "deployedLinkReferences": {}
}